{
  "address": "0x1291Be112d480055DaFd8a610b7d1e203891C274",
  "abi": [
    {
      "inputs": [
        {
          "internalType": "address",
          "name": "exampleExternalContractAddress",
          "type": "address"
        }
      ],
      "stateMutability": "nonpayable",
      "type": "constructor"
    },
    {
      "anonymous": false,
      "inputs": [
        {
          "indexed": true,
          "internalType": "address",
          "name": "sender",
          "type": "address"
        },
        {
          "indexed": false,
          "internalType": "uint256",
          "name": "amount",
          "type": "uint256"
        }
      ],
      "name": "Execute",
      "type": "event"
    },
    {
      "anonymous": false,
      "inputs": [
        {
          "indexed": false,
          "internalType": "address",
          "name": "",
          "type": "address"
        },
        {
          "indexed": false,
          "internalType": "uint256",
          "name": "",
          "type": "uint256"
        }
      ],
      "name": "Received",
      "type": "event"
    },
    {
      "anonymous": false,
      "inputs": [
        {
          "indexed": true,
          "internalType": "address",
          "name": "sender",
          "type": "address"
        },
        {
          "indexed": false,
          "internalType": "uint256",
          "name": "amount",
          "type": "uint256"
        }
      ],
      "name": "Stake",
      "type": "event"
    },
    {
      "inputs": [],
      "name": "abort",
      "outputs": [],
      "stateMutability": "nonpayable",
      "type": "function"
    },
    {
      "inputs": [
        {
          "internalType": "address",
          "name": "_addressToWhitelist",
          "type": "address"
        }
      ],
      "name": "addUser",
      "outputs": [],
      "stateMutability": "nonpayable",
      "type": "function"
    },
    {
      "inputs": [
        {
          "internalType": "address",
          "name": "",
          "type": "address"
        }
      ],
      "name": "balances",
      "outputs": [
        {
          "internalType": "uint256",
          "name": "",
          "type": "uint256"
        }
      ],
      "stateMutability": "view",
      "type": "function"
    },
    {
      "inputs": [
        {
          "internalType": "uint256",
          "name": "sec",
          "type": "uint256"
        },
        {
          "internalType": "uint256",
          "name": "x",
          "type": "uint256"
        }
      ],
      "name": "calcReward",
      "outputs": [
        {
          "internalType": "uint256",
          "name": "y",
          "type": "uint256"
        }
      ],
      "stateMutability": "pure",
      "type": "function"
    },
    {
      "inputs": [],
      "name": "claimDeadline",
      "outputs": [
        {
          "internalType": "uint256",
          "name": "",
          "type": "uint256"
        }
      ],
      "stateMutability": "view",
      "type": "function"
    },
    {
      "inputs": [],
      "name": "claimPeriodLeft",
      "outputs": [
        {
          "internalType": "uint256",
          "name": "claimPeriodLeft",
          "type": "uint256"
        }
      ],
      "stateMutability": "view",
      "type": "function"
    },
    {
      "inputs": [],
      "name": "currentBlock",
      "outputs": [
        {
          "internalType": "uint256",
          "name": "",
          "type": "uint256"
        }
      ],
      "stateMutability": "view",
      "type": "function"
    },
    {
      "inputs": [
        {
          "internalType": "address",
          "name": "",
          "type": "address"
        }
      ],
      "name": "depositTimestamps",
      "outputs": [
        {
          "internalType": "uint256",
          "name": "",
          "type": "uint256"
        }
      ],
      "stateMutability": "view",
      "type": "function"
    },
    {
      "inputs": [],
      "name": "exampleExternalContract",
      "outputs": [
        {
          "internalType": "contract ExampleExternalContract",
          "name": "",
          "type": "address"
        }
      ],
      "stateMutability": "view",
      "type": "function"
    },
    {
      "inputs": [],
      "name": "execute",
      "outputs": [],
      "stateMutability": "nonpayable",
      "type": "function"
    },
    {
      "inputs": [],
      "name": "killTime",
      "outputs": [],
      "stateMutability": "nonpayable",
      "type": "function"
    },
    {
      "inputs": [],
      "name": "rewardRatePerSecond",
      "outputs": [
        {
          "internalType": "uint256",
          "name": "",
          "type": "uint256"
        }
      ],
      "stateMutability": "view",
      "type": "function"
    },
    {
      "inputs": [],
      "name": "stake",
      "outputs": [],
      "stateMutability": "payable",
      "type": "function"
    },
    {
      "inputs": [
        {
          "internalType": "address",
          "name": "_whitelistedAddress",
          "type": "address"
        }
      ],
      "name": "verifyUser",
      "outputs": [
        {
          "internalType": "bool",
          "name": "",
          "type": "bool"
        }
      ],
      "stateMutability": "view",
      "type": "function"
    },
    {
      "inputs": [],
      "name": "withdraw",
      "outputs": [],
      "stateMutability": "nonpayable",
      "type": "function"
    },
    {
      "inputs": [],
      "name": "withdrawalDeadline",
      "outputs": [
        {
          "internalType": "uint256",
          "name": "",
          "type": "uint256"
        }
      ],
      "stateMutability": "view",
      "type": "function"
    },
    {
      "inputs": [],
      "name": "withdrawalTimeLeft",
      "outputs": [
        {
          "internalType": "uint256",
          "name": "withdrawalTimeLeft",
          "type": "uint256"
        }
      ],
      "stateMutability": "view",
      "type": "function"
    },
    {
      "stateMutability": "payable",
      "type": "receive"
    }
  ],
  "transactionHash": "0xd9f1a26485d11d10d029dfdc06c3f0c5e2ee77549ba80e6576a7144cd992ce2d",
  "args": [
    "0x4c5859f0F772848b2D91F1D83E2Fe57935348029"
  ],
  "solcInputHash": "a8d1e0cc215050b3b171912224f5c872",
  "bytecode": "0x608060405261000f426078610138565b60035561001d4260f0610138565b600455600060055534801561003157600080fd5b506040516110ab3803806110ab8339810160408190526100509161010a565b600080546001600160a01b03199081166001600160a01b03841617909155600680543392168217905561008290610088565b5061015c565b6006546001600160a01b031633146100e65760405162461bcd60e51b815260206004820181905260248201527f4f776e61626c653a2063616c6c6572206973206e6f7420746865206f776e6572604482015260640160405180910390fd5b6001600160a01b03166000908152600760205260409020805460ff19166001179055565b60006020828403121561011b578081fd5b81516001600160a01b0381168114610131578182fd5b9392505050565b6000821982111561015757634e487b7160e01b81526011600452602481fd5b500190565b610f408061016b6000396000f3fe6080604052600436106101025760003560e01c80634d813120116100955780639f75f227116100645780639f75f227146102cc578063bcb8e81314610304578063be3106971461031a578063e12ed13c14610330578063f78941761461034657600080fd5b80634d813120146102325780635d773b2c1461027b578063614619541461029757806389d9dd4f146102ac57600080fd5b80633a4b66f1116100d15780633a4b66f1146101df5780633ba86c44146101e75780633ccfd60b146101fd578063421b2d8b1461021257600080fd5b8063240be9441461014657806324a5a2ce1461018657806327e235e31461019b57806335a063b4146101c857600080fd5b3661014157604080513381523460208201527f88a5966d370b9919b20f3e2c13ff65706f196a4e32cc2c12bf57088f88525874910160405180910390a1005b600080fd5b34801561015257600080fd5b50610173610161366004610ca9565b60026020526000908152604090205481565b6040519081526020015b60405180910390f35b34801561019257600080fd5b5061017361035b565b3480156101a757600080fd5b506101736101b6366004610ca9565b60016020526000908152604090205481565b3480156101d457600080fd5b506101dd61037f565b005b6101dd61053f565b3480156101f357600080fd5b5061017360045481565b34801561020957600080fd5b506101dd61067f565b34801561021e57600080fd5b506101dd61022d366004610ca9565b6109c0565b34801561023e57600080fd5b5061026b61024d366004610ca9565b6001600160a01b031660009081526007602052604090205460ff1690565b604051901515815260200161017d565b34801561028757600080fd5b5061017367016345785d8a000081565b3480156102a357600080fd5b506101dd610a3e565b3480156102b857600080fd5b506101736102c7366004610cf0565b610bc1565b3480156102d857600080fd5b506000546102ec906001600160a01b031681565b6040516001600160a01b03909116815260200161017d565b34801561031057600080fd5b506101dd42600555565b34801561032657600080fd5b5061017360035481565b34801561033c57600080fd5b5061017360055481565b34801561035257600080fd5b50610173610bdf565b6000600454421061036c5750600090565b4260045461037a9190610edd565b905090565b6001600061038b61035b565b905081156103bf5780156103ba5760405162461bcd60e51b81526004016103b190610dea565b60405180910390fd5b6103df565b600081116103df5760405162461bcd60e51b81526004016103b190610e2b565b3360008181526007602052604090205460ff1661043e5760405162461bcd60e51b815260206004820152601a60248201527f596f75206e65656420746f2062652077686974656c697374656400000000000060448201526064016103b1565b61046d6040518060400160405280600d81526020016c6164647265737328746869732960981b81525030610bfe565b60408051808201909152600e81526d61646472657373286f776e65722960901b60208201526006546104a891906001600160a01b0316610bfe565b6104dd6040518060400160405280601381526020017261646472657373286d73672e73656e6465722960681b81525033610bfe565b6000546040516390cbfa1960e01b81523060048201526001600160a01b03909116906390cbfa1990602401600060405180830381600087803b15801561052257600080fd5b505af1158015610536573d6000803e3d6000fd5b50505050505050565b60008061054a610bdf565b905081156105755780156105705760405162461bcd60e51b81526004016103b190610e62565b610595565b600081116105955760405162461bcd60e51b81526004016103b190610da8565b6000806105a061035b565b905081156105cb5780156105c65760405162461bcd60e51b81526004016103b190610dea565b6105eb565b600081116105eb5760405162461bcd60e51b81526004016103b190610e2b565b33600090815260016020526040902054610606903490610ea6565b336000818152600160209081526040808320949094556002905282902042905590517febedb8b3c678666e7f36970bc8f57abf6d8fa2e828c0da91ea5b75bf68ed101a906106579034815260200190565b60405180910390a25050336000908152600760205260409020805460ff191660011790555050565b6001600061068b610bdf565b905081156106b65780156106b15760405162461bcd60e51b81526004016103b190610e62565b6106d6565b600081116106d65760405162461bcd60e51b81526004016103b190610da8565b6000806106e161035b565b9050811561070c5780156107075760405162461bcd60e51b81526004016103b190610dea565b61072c565b6000811161072c5760405162461bcd60e51b81526004016103b190610e2b565b60008060009054906101000a90046001600160a01b03166001600160a01b0316639d9a7fe96040518163ffffffff1660e01b815260040160206040518083038186803b15801561077b57600080fd5b505afa15801561078f573d6000803e3d6000fd5b505050506040513d601f19601f820116820180604052508101906107b39190610cd0565b905080156107fe5760405162461bcd60e51b81526020600482015260186024820152775374616b6520616c726561647920636f6d706c657465642160401b60448201526064016103b1565b3360009081526001602052604090205461085a5760405162461bcd60e51b815260206004820181905260248201527f596f752068617665206e6f2062616c616e636520746f2077697468647261772160448201526064016103b1565b336000908152600160209081526040918290205482518084019093526011835270696e646976696475616c42616c616e636560781b91830191909152906108a19082610c47565b336000908152600260205260408120546108cd906108bf9042610edd565b67016345785d8a0000610bc1565b6108d79083610ea6565b905061090c60405180604001604052806011815260200170696e6442616c616e63655265776172647360781b81525082610c47565b33600081815260016020526040808220829055519091829184908381818185875af1925050503d806000811461095e576040519150601f19603f3d011682016040523d82523d6000602084013e610963565b606091505b5091509150816109b55760405162461bcd60e51b815260206004820152601a60248201527f5249503b207769746864726177616c206661696c6564203a282000000000000060448201526064016103b1565b505050505050505050565b6006546001600160a01b03163314610a1a5760405162461bcd60e51b815260206004820181905260248201527f4f776e61626c653a2063616c6c6572206973206e6f7420746865206f776e657260448201526064016103b1565b6001600160a01b03166000908152600760205260409020805460ff19166001179055565b60016000610a4a61035b565b90508115610a75578015610a705760405162461bcd60e51b81526004016103b190610dea565b610a95565b60008111610a955760405162461bcd60e51b81526004016103b190610e2b565b60008060009054906101000a90046001600160a01b03166001600160a01b0316639d9a7fe96040518163ffffffff1660e01b815260040160206040518083038186803b158015610ae457600080fd5b505afa158015610af8573d6000803e3d6000fd5b505050506040513d601f19601f82011682018060405250810190610b1c9190610cd0565b90508015610b675760405162461bcd60e51b81526020600482015260186024820152775374616b6520616c726561647920636f6d706c657465642160401b60448201526064016103b1565b600080546040805163522e117760e01b8152905147936001600160a01b039093169263522e11779247926004808301939282900301818588803b158015610bad57600080fd5b505af11580156109b5573d6000803e3d6000fd5b600081610bce8480610ebe565b610bd89190610ebe565b9392505050565b60006003544210610bf05750600090565b4260035461037a9190610edd565b610c438282604051602401610c14929190610d5c565b60408051601f198184030181529190526020810180516001600160e01b031663319af33360e01b179052610c88565b5050565b610c438282604051602401610c5d929190610d86565b60408051601f198184030181529190526020810180516001600160e01b03166309710a9d60e41b1790525b80516a636f6e736f6c652e6c6f67602083016000808483855afa5050505050565b600060208284031215610cba578081fd5b81356001600160a01b0381168114610bd8578182fd5b600060208284031215610ce1578081fd5b81518015158114610bd8578182fd5b60008060408385031215610d02578081fd5b50508035926020909101359150565b60008151808452815b81811015610d3657602081850181015186830182015201610d1a565b81811115610d475782602083870101525b50601f01601f19169290920160200192915050565b604081526000610d6f6040830185610d11565b905060018060a01b03831660208301529392505050565b604081526000610d996040830185610d11565b90508260208301529392505050565b60208082526022908201527f5769746864726177616c20706572696f6420686173206265656e207265616368604082015261195960f21b606082015260800190565b60208082526021908201527f436c61696d20646561646c696e65206973206e6f7420726561636865642079656040820152601d60fa1b606082015260800190565b6020808252601f908201527f436c61696d20646561646c696e6520686173206265656e207265616368656400604082015260600190565b60208082526024908201527f5769746864726177616c20706572696f64206973206e6f742072656163686564604082015263081e595d60e21b606082015260800190565b60008219821115610eb957610eb9610ef4565b500190565b6000816000190483118215151615610ed857610ed8610ef4565b500290565b600082821015610eef57610eef610ef4565b500390565b634e487b7160e01b600052601160045260246000fdfea2646970667358221220955fdb03db0f115b6fee3bbed1a9e0dff9bc674dc1ac2dcc85de921c86ccb96264736f6c63430008040033",
  "devdoc": {
    "kind": "dev",
    "methods": {},
    "version": 1
  },
  "userdoc": {
    "kind": "user",
    "methods": {},
    "version": 1
  },
  "storageLayout": {
    "storage": [
      {
        "astId": 39,
        "contract": "contracts/Staker.sol:Staker",
        "label": "exampleExternalContract",
        "offset": 0,
        "slot": "0",
        "type": "t_contract(ExampleExternalContract)32"
      },
      {
        "astId": 43,
        "contract": "contracts/Staker.sol:Staker",
        "label": "balances",
        "offset": 0,
        "slot": "1",
        "type": "t_mapping(t_address,t_uint256)"
      },
      {
        "astId": 47,
        "contract": "contracts/Staker.sol:Staker",
        "label": "depositTimestamps",
        "offset": 0,
        "slot": "2",
        "type": "t_mapping(t_address,t_uint256)"
      },
      {
        "astId": 56,
        "contract": "contracts/Staker.sol:Staker",
        "label": "withdrawalDeadline",
        "offset": 0,
        "slot": "3",
        "type": "t_uint256"
      },
      {
        "astId": 62,
        "contract": "contracts/Staker.sol:Staker",
        "label": "claimDeadline",
        "offset": 0,
        "slot": "4",
        "type": "t_uint256"
      },
      {
        "astId": 65,
        "contract": "contracts/Staker.sol:Staker",
        "label": "currentBlock",
        "offset": 0,
        "slot": "5",
        "type": "t_uint256"
      },
      {
        "astId": 184,
        "contract": "contracts/Staker.sol:Staker",
        "label": "owner",
        "offset": 0,
        "slot": "6",
        "type": "t_address"
      },
      {
        "astId": 209,
        "contract": "contracts/Staker.sol:Staker",
        "label": "whitelistedAddresses",
        "offset": 0,
        "slot": "7",
        "type": "t_mapping(t_address,t_bool)"
      }
    ],
    "types": {
      "t_address": {
        "encoding": "inplace",
        "label": "address",
        "numberOfBytes": "20"
      },
      "t_bool": {
        "encoding": "inplace",
        "label": "bool",
        "numberOfBytes": "1"
      },
      "t_contract(ExampleExternalContract)32": {
        "encoding": "inplace",
        "label": "contract ExampleExternalContract",
        "numberOfBytes": "20"
      },
      "t_mapping(t_address,t_bool)": {
        "encoding": "mapping",
        "key": "t_address",
        "label": "mapping(address => bool)",
        "numberOfBytes": "32",
        "value": "t_bool"
      },
      "t_mapping(t_address,t_uint256)": {
        "encoding": "mapping",
        "key": "t_address",
        "label": "mapping(address => uint256)",
        "numberOfBytes": "32",
        "value": "t_uint256"
      },
      "t_uint256": {
        "encoding": "inplace",
        "label": "uint256",
        "numberOfBytes": "32"
      }
    }
  }
}