{
  "_format": "hh-sol-artifact-1",
  "contractName": "ExampleExternalContract",
  "sourceName": "contracts/ExampleExternalContract.sol",
  "abi": [
    {
      "inputs": [
        {
          "internalType": "address payable",
          "name": "stakerContractAddress",
          "type": "address"
        }
      ],
      "name": "abort",
      "outputs": [],
      "stateMutability": "nonpayable",
      "type": "function"
    },
    {
      "inputs": [],
      "name": "complete",
      "outputs": [],
      "stateMutability": "payable",
      "type": "function"
    },
    {
      "inputs": [],
      "name": "completed",
      "outputs": [
        {
          "internalType": "bool",
          "name": "",
          "type": "bool"
        }
      ],
      "stateMutability": "view",
      "type": "function"
    }
  ],
  "bytecode": "0x608060405234801561001057600080fd5b50610133806100206000396000f3fe60806040526004361060305760003560e01c8063522e117714603557806390cbfa191460485780639d9a7fe9146063575b600080fd5b60466000805460ff19166001179055565b005b348015605357600080fd5b506046605f36600460d1565b608f565b348015606e57600080fd5b50600054607b9060ff1681565b604051901515815260200160405180910390f35b6040516001600160a01b038216904780156108fc02916000818181858888f1935050505015801560c3573d6000803e3d6000fd5b50506000805460ff19169055565b60006020828403121560e1578081fd5b81356001600160a01b038116811460f6578182fd5b939250505056fea2646970667358221220f092472ea8d88197a1c7ce372ce55dd4b79563fd89d08c7b91883406aef146b264736f6c63430008040033",
  "linkReferences": {},
  "deployedLinkReferences": {}
}